:100000000C94B5020C94ED020C94ED020C94ED02EC
:100010000C94ED020C94ED020C94ED020C94ED02A4
:100020000C94ED020C94ED020C9405250C94C12463
:100030000C9402260C94ED020C94ED020C94ED024B
:100040000C94ED020C94ED020C94ED020C94ED0274
:100050000C94ED020C94DE250C94ED020C94ED0250
:100060000C94ED020C94ED020C94ED020C94ED0254
:100070000C94ED020C94ED020C94ED020C94ED0244
:100080000C94ED020C94ED020C94ED020C94ED0234
:100090000C94ED020C94ED020C94ED020C94ED0224
:1000A0000C94ED020C94ED020C94ED020501090292
:1000B000A10185020901A1000509190129081500FE
:1000C0002501950875018102050109300931158165
:1000D000257F95027508810609381581257F9501D0
:1000E00075088106050C0A38021581257F95017572
:1000F000088106C0C005010980A101850319012AF4
:10010000B700150126B700950175108100C0050CD8
:100110000901A101850419012AA002150126A002E6
:10012000950175108100C005010906A1018506052C
:100130000719E029E71500250195087501810205D9
:1001400007190029EF1500250195F07501810205B9
:10015000081901290595057501910295017503910D
:1001600001C00660FF0961A1010962150026FF00B8
:100170009520750881020963150026FF00952075FA
:10018000089102C005010906A101050719E029E748
:1001900015002501950875018102950175088101F9
:1001A0000507190029FF150026FF0095067508812F
:1001B000000508190129059505750191029501753C
:1001C000039101C0000000000000000000000000DA
:1001D000000000000000000000000000000000001F
:1001E00000000000000000007E0F00D4FFFFFFC7EA
:1001F0000000007800000000000000002A2B28000A
:1002000000000000000000000000000000000029C5
:10021000000000002C1E3420212224342627252E05
:10022000362D3738271E1F2021222324252633333D
:10023000362E37381F0405060708090A0B0C0D0E69
:100240000F101112131415161718191A1B1C1D2F35
:100250003130232D350405060708090A0B0C0D0E55
:100260000F101112131415161718191A1B1C1D2F15
:100270003130354C0001010101010101010102028F
:100280000202020202020203030303030303030444
:10029000040404040404050505050506060606060F
:1002A000070707070708080808090909090A0A0AC9
:1002B0000B0B0B0C0C0C0D0D0D0E0E0E0F0F0F106B
:1002C00010111111121213131414151516161717F5
:1002D000181819191A1A1B1B1C1D1D1E1E1F202061
:1002E000212222232424252626272829292A2B2CAB
:1002F0002D2D2E2F30313232333435363738393ACE
:100300003B3C3D3E3F404142434445464748494AC5
:100310004C4D4E4F50515354555658595A5B5D5E93
:100320005F616264656668696B6C6D6F707273752E
:1003300077787A7B7D7E8082838587888A8C8E8F92
:1003400091939596989A9C9EA0A2A3A5A7A9ABADC0
:10035000AFB1B3B5B7BABCBEC0C2C4C6C9CBCDCFAE
:10036000D1D4D6D8DBDDDFE2E4E7E9EBEEF0F3F55C
:10037000F8FAFDFF165C4C003E0001512A00E00037
:100380005300540055005600E3005F006000610018
:100390005700E2005C005D005E0000005200590062
:1003A0005A005B000000510062006300580000002A
:1003B000005CC25CC35C46004700C55C0000CC5CCE
:1003C000CB5CCA5CC65C4A0052004B00C95CC75C8F
:1003D000500000004F000000C85C4D0051004E006E
:1003E0000000010049004C0028000000010001004D
:1003F00001000100010001000100010001000100F5
:1004000001000100010001000100010001000100E4
:1004100001000000010001000100010000000100D6
:1004200001000100010000000100010001000100C5
:1004300001000100010001000100010001000100B4
:1004400001000100010001000100010001000000A5
:100450000100010001000100000001000100010095
:100460000100000001000100010001000100010085
:100470000100010001000100010001000100010074
:100480000100010001000100010000000100010065
:100490000100010000000100010001000100000056
:1004A0000100010001000100010001000100010044
:1004B0000100010001000100010001000100010034
:1004C0000100010001000000010001000100010025
:1004D00000000100010001000100000009025B00B2
:1004E000030100A0FA090400000103010100092131
:1004F00011010001224000070581030800010904E1
:100500000100020300000009211101000122220064
:1005100007058203200001070503032000010904E9
:100520000200010300000009211101000122B600B0
:1005300007058403200001120100020000000820CA
:100540004560600001010200010A034E004B0032C9
:1005500000370000000E03490044004F00420041F4
:10056000004F000000040309040011241FBECFEF58
:10057000DAE0DEBFCDBF04B603FE18C080910104EF
:1005800090910204A0910304B09104048730904B31
:10059000A740B04B59F4109201041092020410923B
:1005A000030410920404E0E0F8E3099524E0AAEEC5
:1005B000B1E001C01D92A130B207E1F711E0A0E067
:1005C000B1E0EEEDF9E502C005900D92AA3EB1074B
:1005D000D9F70E9429260C94AB2C0C940000E8ED6E
:1005E000F0E080818E7F80831092E2001092DA002A
:1005F0001092E100A0EEB0E08C9181608C9380813C
:100600008F77808319BCA7EDB0E08C918E7F8C939F
:1006100080818F7E808310929B0308952091E40057
:100620003091E50095E6A9012091EC00822F8170C0
:1006300020FF06C08091E80080FF06C080E008959A
:100640002091E80022FD1AC08091C003882389F020
:10065000853089F08091EB0085FD0FC02091E4008A
:100660003091E50042175307F9F29150E1F684E02A
:10067000089582E0089583E0089581E00895EF925F
:10068000FF920F931F93CF937C018B010E940E0367
:10069000C82F811117C08091E80085FD0BC08091A3
:1006A000E8008E778093E8000E940E03882399F378
:1006B000C82F08C0F70181917F018093F10001509C
:1006C000110949F78C2FCF911F910F91FF90EF9057
:1006D00008958091C20387FF13C08091E80082FFD4
:1006E00006C08091E8008B778093E80004C0809179
:1006F000C0038111F2CF08958091C0038823D9F3FC
:100700008091E80080FFF8CF8091E8008E77ECCFF1
:10071000982F9093E900242F762F50E0891731F01D
:100720007091EC002091ED005091F00021FD07C088
:100730009F5F973071F78093E90081E008953091D1
:10074000EB003E7F3093EB003091ED003D7F309326
:10075000ED003091EB0031603093EB007093EC00D2
:100760002093ED005093F0002091EE0027FDE0CFA4
:1007700080E00895CF92DF92EF92FF920F931F9344
:10078000CF93DF93C8EDD0E088818F7E8883E7ED3B
:10079000F0E080818160808384E082BF81E080938B
:1007A0009B0388818E7F888302EE10E0F80110821F
:1007B0001092DA0081EEC82ED12CF60110828881C9
:1007C0008F77888388818068888388818F7D8883FC
:1007D00019BC1092C0031092C1031092BF03109273
:1007E000BE0390EEE92EF12CF70180818B7F808390
:1007F00088818160888342E060E080E00E94880315
:10080000F60180818E7F8083F80180818160808302
:10081000808188608083F70180818E7F80838881DA
:1008200080618883DF91CF911F910F91FF90EF90AE
:10083000DF90CF900895FC018091C8039091C90387
:1008400086179707A0F06115710529F49091E800CB
:100850009E779093E80090E06115710551F4911135
:1008600008C08091E80082FF34C080E00895BC0198
:10087000F2CF8091C0038823C1F18530C1F180910E
:10088000E80083FD30C08091E80082FDEACF8091CE
:10089000E80080FFE1CF8091F3002091F200382F33
:1008A0006115710519F02830310558F091E02830B4
:1008B000310509F090E02091E8002E772093E800C0
:1008C000CBCF81918093F100615071092F5F3F4F31
:1008D000E7CF8091C003882341F0853041F08091BB
:1008E000E80083FFBECF81E0089582E0089583E0B1
:1008F0000895089580919D0308959C014FB7F89441
:100900008091920390919303A0919403B0919503E9
:100910004FBF821B930B08952FB7F89480919203D9
:1009200090919303A0919403B09195032FBF0895E4
:10093000209115012223C9F02091960327FF15C0AD
:10094000E62FE695E695E695EE31D8F4E80FF92F17
:10095000F11D677021E030E001C0220F6A95EAF7CF
:1009600020958281282322830895FC0132960896DF
:100970002191621303C0DF0111971C92E817F90758
:10098000B9F70895209115012223C1F02091960313
:1009900027FF14C0E62FE695E695E695EE31F8F4CC
:1009A000E80FF92FF11D677021E030E001C0220F40
:1009B0006A95EAF78281822B82830895FC01329640
:1009C0002FEF30E04191641751F02F3F19F441119E
:1009D00001C0232F3F5F3630A9F72F3F09F4089558
:1009E000820F911D27FD9A95FC0162830895209145
:1009F0008F03309190032817390771F0909390037B
:100A000080938F03E0918D03F0918E03309721F056
:100A10000084F185E02D0994089520918B03309195
:100A20008C032817390771F090938C0380938B0304
:100A3000E0918D03F0918E03309721F00680F781CD
:100A4000E02D09940895E0918D03F0918E03309785
:100A500021F00190F081E02D099480E00895FA01E1
:100A6000811101C0FB010994EEE2F3E08183608310
:100A70004283339693E0EB38F907C1F70895FC0100
:100A8000EE0FFF1FE80FF91FE25DFC4F618340830B
:100A900022830895FC019B01AC0197FF04C0442709
:100AA0005527481B590BBA01620F731F37FD0FC042
:100AB000241B350BC901A5E0880F991FAA95E1F702
:100AC0000E94632B80E2861BF7FD81950895CB0180
:100AD00065E0880F991F6A95E1F7BA01621B730BF5
:100AE0000E94632B80E6EFCFEEECF3E0248130E14F
:100AF000231B08F420E0248380912D0381608093E0
:100B00002D030895EEECF3E0248130E1230F08F487
:100B10002FEF248380912D03816080932D0308950E
:100B20009091CE03937071F08093CF036093D003C4
:100B3000453B08F044EB4093D10380912D03822B79
:100B400080932D030895EEECF3E0438120E1421BF6
:100B500008F440E0818121E0628190E00C949005EE
:100B6000EEECF3E0438120E1420F08F44FEF818186
:100B700021E0628190E00C949005EEECF3E062815C
:100B800020E1621B08F460E0818121E0438190E074
:100B90000C949005EEECF3E0628120E1620F08F422
:100BA0006FEF818121E0438190E00C949005EEECA1
:100BB000F3E0818121E0438162818850990B0C949C
:100BC0009005EEECF3E0818190E021E043816281C9
:100BD00008960C9490059091CE03937061F081116A
:100BE0000BC094609093CE031092140180912D035A
:100BF000862B80932D030895893110F09066F2CFF3
:100C0000880F880F982BEECF8091CE03869586951E
:100C1000815009F488E161E00C94EB058091CE03EA
:100C2000869586958F5F893108F081E061E00C94AC
:100C3000EB05EF92FF920F939701201B31092F3F95
:100C4000310519F010F02FEF30E02095382F320FDA
:100C500008F43FEF832F0F91FF90EF900895EF92EC
:100C6000FF920F939701201B31092F3F310519F097
:100C700010F02FEF30E0322F3095482F430F08F45B
:100C80004FEF842F620F0F91FF90EF900895EF9236
:100C9000FF920F93970195E0099F200D311D1124BC
:100CA0002F3F310519F010F02FEF30E02095382F4D
:100CB000320F08F43FEF832F0F91FF90EF900895CC
:100CC000E42FF0E0EE0FFF1FE357FE4F9081921BE1
:100CD00097FD9195292F38E1239F212D1124620F33
:100CE0000895EF920F93972F23E0029FB0011124F4
:100CF000759567956E0D792F0F91EF900895E42FFC
:100D0000F0E0EE0FFF1FE159FE4F678D621B089563
:100D1000E42FF0E0EE0FFF1FE357FE4F6081621BF0
:100D20000895622F08950C9434050C943F0522E831
:100D3000241B08F420E0620F08950F931F93522F95
:100D400010E0F801EE0FFF1FE159FE4FA78DA052F2
:100D5000BB0B9D015203F001539FF00D1124000FB6
:100D6000111FD801A357BE4F0C910057110B400320
:100D70009001419F300D11242E0F3F1F37FF02C0FD
:100D8000215C3F4F96E0359527959A95E1F7620FE4
:100D90001F910F910895EF920F93CF93DF93D72F69
:100DA000C82FC9010E19009729F480E857FD05C026
:100DB00080E003C0BA010E944A05602F681B7D2FA6
:100DC0008C2FDF91CF910F91EF9008950F93CF93D8
:100DD000DF93D72FC82FC901009729F480E857FD6A
:100DE00005C080E003C0BA010E944A05602F680F69
:100DF0007D2F8C2FDF91CF910F910895E82F86FDE5
:100E0000E0952E2F2F7086FD2F5FE695E695E695EF
:100E1000E670F0E0E85AFE4F9181929F902D212DCF
:100E2000112492959F702295207F922B2081920F02
:100E300087FD919580E8890F08950F931F93CF93B5
:100E4000DF938B01D82FC42F822F0E94FE06EC2F38
:100E5000F0E0EE0FFF1FE357FE4F90819058890F8F
:100E600087FD8195880F682F2CE0629F612D1124EA
:100E7000600F712F8D2FDF91CF911F910F910895EA
:100E8000409110015091110125E038E0429FC001CE
:100E9000439F900D529F900D1124875E994C909323
:100EA000110180931001890F0895AC0182309105E2
:100EB00008F408959FEF413E8EE1580740F49A01EF
:100EC00095E0369527959A95E1F798E0920F61E0C5
:100ED000E62FE90FFF27FF1F9F0135952795822FEA
:100EE000229FF001239FF00DF00D11244E175F0794
:100EF00038F49FEF920F961758F78FEF860F0895EB
:100F00002F3FE9F361E0620FF6CF30E020E0869FEB
:100F1000212D969F200D311D1124C9010895AF92F6
:100F2000BF92CF92DF92FF920F931F93CF93DF93E5
:100F3000362F472FE82FF0E0EC58FD4F71110FC00E
:100F4000E4918E2F2E2F6E2F722FDF91CF911F9154
:100F50000F91FF90DF90CF90BF90AF900895C72F73
:100F6000D0E02491F22E022F10E056E0659FC001E0
:100F70001124EFEFF0E0BF010E944F2B832F90E090
:100F8000880F991F35E5369FD001379FB00D11248A
:100F90008A1B9B0B982F990F980F6F01CC1ADD0AB3
:100FA000C09ED001C19EB00DD09EB00D11248B2FDC
:100FB000499FA0011124452F55276F01C41AD50A56
:100FC000C09EA001C19E500DD09E500D11245F0106
:100FD000A91AB108AC9E6001AD9ED00CBC9ED00C8D
:100FE0001124CD2CDD24EC19FD09E09FE001E19FE7
:100FF000D00DF09FD00D1124ED2F62307105A1F0BE
:1010000050F46115710509F49ECF6130710581F0CE
:10101000EB2F852F98CF6430710569F080F0663032
:10102000710509F490CFF4CFE22F2B2F8D2F8BCFAA
:10103000E22F252F88CFEB2F822F2D2F84CF2B2F20
:101040008F2DE52F80CF2F923F925F926F927F92EC
:101050008F929F92AF92BF92CF92DF92EF92FF92C8
:101060000F931F93CF93DF93CDB7DEB72A970FB6B9
:10107000F894DEBF0FBECDBF8B837E836D8320913E
:10108000160187E0289F802D11248F83895F898333
:101090008A83803210F03FE13A838091D4038C83BD
:1010A000FF81EF2FF0E0FA87E987CF01880F991FC2
:1010B0009C0121593E4F69013B81832F90E0FC0147
:1010C0003196F887EF838A8199859817E8F081E057
:1010D000E981EF3108F080E02A960FB6F894DEBF80
:1010E0000FBECDBFDF91CF911F910F91FF90EF9079
:1010F000DF90CF90BF90AF909F908F907F906F9038
:101100005F903F902F900895E985FA85E553FE4F53
:101110008081909117018923F1F02090CF033090C6
:10112000D0032F8138852C523C4F39015B8010E071
:10113000FC815F16D0F02091D103129F112D112454
:10114000B101812F0E948F07462F282F672F898595
:101150009A850E94950629853A852F5F3F4F3A87E9
:10116000298732E0C30ED11CAECFF30181913F013C
:10117000F601A68CA81ABB08878CF3018781881A10
:101180009908AA9C9001AB9C300D300D1124889CCD
:10119000C001899C900D900D1124820F931F0E9415
:1011A0005507082F6091D20321E0620F08F46FEF1A
:1011B000F301EE0FFF1FE45DF340858996890E94DD
:1011C00085077C019401A501B101812FED81FE818C
:1011D00009951B015394182FABCFDF92EF92FF922A
:1011E0000F931F93CF93DF937C01C091160187E08B
:1011F000C89FC02D112417E01C0F012F103208F0DA
:101200000FE16091D2036695669521E0620F08F4C4
:101210006FEF8091CA039091CB030E948507D82E6F
:10122000D0E0C01760F081E01F3108F080E0DF916E
:10123000CF911F910F91FF90EF90DF900895FE01E5
:10124000E553FE4F808190911701892391F06091C1
:10125000CF037091D0038091D1032D2D4C2FF70136
:1012600009950E948F07462F282F672FCE010E94D5
:1012700095062196D6CF5F926F927F928F929F9222
:10128000AF92BF92CF92DF92EF92FF920F931F9394
:10129000CF93DF933C01C091160187E0C89FC02D1A
:1012A000112417E01C0FF12E103210F03FE1F32E45
:1012B0006091D20366958091CA039091CB030E94FE
:1012C0008507582ED0E0CE01880F991F9C01215927
:1012D0003E4F6901CF15A0F081E01F3108F080E09A
:1012E000DF91CF911F910F91FF90EF90DF90CF9002
:1012F000BF90AF909F908F907F906F905F90089578
:10130000FE01E553FE4F808190911701892379F109
:10131000F601868D282F2057330B5901878DE82F32
:10132000E052FF0B4F01AA9C9001AB9C300D300D99
:101330001124EE9FC001EF9F900D900D1124820F9C
:10134000931F0E945507082F6091CF037091D0031F
:101350008091D103E52C9401A501F30109950E9428
:101360008F07462F282F672FCE010E949506F2E0A7
:10137000CF0ED11C2196AECF0E948C049C0190917F
:10138000960280919702982B21F03093930220933C
:1013900092029091980280919902982B21F03093BB
:1013A000910220939002E0918D03F0918E0330978B
:1013B00049F082E0809394020480F581E02D84E975
:1013C00092E00994089540919602803F59F48091EB
:1013D000970287FF0DC01092970241110BC0109227
:1013E0008E0208C0813F81F48091970218169CF309
:1013F000442381F08091980290919902892B09F001
:101400005AC010928D020895823F49F447FFF0CFF1
:1014100010929602809197028111ECCFE0CF833F2A
:1014200019F41416ACF3E4CF90919802893F29F493
:101430001916F4F610929802DBCF8A3F19F497FF41
:10144000D7CFF8CF909199028B3F29F497FFD0CF57
:1014500010929902CDCF8C3F19F41916CCF3C8CF56
:101460009CE0980F953090F4845F990B21E030E078
:10147000B90102C0660F771F8A95E2F7CB0180950C
:1014800090919502892380939502B2CF8D3F31F4DC
:1014900080918F028E7F80938F02AACF8E3F21F49E
:1014A00080918F028D7FF7CF8F3F09F0A1CF809180
:1014B0008F028B7FF0CF089580918F0280FD16C040
:1014C00081FD16C082FD16C080918D028823A1F097
:1014D000883280F428E0829FC001112468E270E025
:1014E0000E94632B862F672B39F0089582E00895C0
:1014F00084E0089588E0089581E0089580918F0246
:1015000080FD14C081FD14C082FD16C080918E0242
:10151000882381F08E3180F420E5829FC001112460
:101520006EE170E00E94632B862F089584E1089598
:1015300088E2089588E0089580E50895803F31F4B9
:101540000E947E0A8195809397020895813F19F445
:101550000E947E0AF8CF823F31F40E947E0A819574
:10156000809396020895833F19F40E947E0AF8CF73
:10157000893F29F40E945C0A8093980208958A3F6B
:1015800021F40E945C0A8195F7CF8B3F31F40E94D1
:101590005C0A81958093990208958C3F19F40E940A
:1015A0005C0AF8CF9CE0980F953070F4845F990B3B
:1015B00021E030E001C0220F8A95EAF78091950280
:1015C000822B8093950208958D3F31F480918F0294
:1015D000816080938F0208958E3F21F480918F0265
:1015E0008260F7CF8F3FB9F780918F028460F1CF8F
:1015F00080E00895F894E82FE295EF70F0E031A1D3
:10160000282F2F7081E090E001C0880F2A95EAF71B
:10161000982F9095932391A392A1892B82A37894DC
:1016200008959091960392FF06C0282F28712830C4
:10163000F9F4877F846093FF06C0282F2871283132
:10164000F1F4877E84612091970320FF06C0382F34
:1016500038713830D9F4877F816021FF06C0282F88
:1016600028712831D1F4877E816194FD877E0895A9
:10167000282F24712430F9F68B7F8860DCCF282F47
:101680002471243101F78B7E8861DDCF382F3171D1
:10169000313019F78E7F8860E0CF282F21712131FA
:1016A00021F78E7E8861E1CFCF93DF93EC01823802
:1016B0009105A9F1D8F58133910509F496C048F553
:1016C0008932910509F48AC08A9709F495C0C11539
:1016D00021E5D20708F0BCC0C11530E5D30708F0FA
:1016E00014C1C83ED10508F09CC0C03ED10560F5CC
:1016F000C83AD10508F087C0C53AD10508F0FDC049
:10170000C130D10509F12097F9F0C430D105E0F4DA
:1017100040C08533910509F45AC0C997C1F680913C
:101720009603837089F0C0EED0E00EC0833E910531
:1017300099F170F4803E910501F1823E910539F6F0
:101740008091960382FD21C0CE01DF91CF91089553
:10175000863E910561F1873E910571F1843E9105C8
:1017600009F0B5CF8091970381FFEECF809196036A
:10177000C7EED0E084FD0DC0E7CF8091960380FDD9
:1017800012C19091970390FFDFCFC3EED0E084FFAA
:10179000DBCFD0E0C0E0D8CF8091960382FD06C1B8
:1017A0009091970390FDBFCF84FFCECFF2CF809171
:1017B000960383FDDDCFC8CF8091960383FDF9C0EA
:1017C0009091970391FFF0CFC4EED0E0BDCF809110
:1017D000960385FFB9CFC9E2D0E0B6CF80919603DA
:1017E00085FFB2CFC5E3D0E0AFCF8091960386FFEF
:1017F000ABCFCAE2D0E0A8CF8091960386FFA4CFFA
:10180000C1E3D0E0A1CFCF3BD10518F6C85AD0E054
:10181000CC0FDD1FC15EDE4F0990D881C02DD4648E
:1018200093CFC11540E2D40758F4C11581E0D80721
:1018300008F08ACFC03FD10508F4ABCFD06584CF84
:10184000C11590E4D90708F4A4CFDF70D06A7CCF2B
:10185000C11525E5D20700F5C11534E5D30708F019
:101860008AC0C11543E5D40708F071C0C11582E5EF
:10187000D80708F467C0CE018370992721E030E0D3
:1018800002C0220F331F8A95E2F7C695C69580E203
:10189000C89FE001112452C0C11599E5D907A8F4E9
:1018A000C11528E5D20708F06BC0C11536E5D3078E
:1018B00008F06FCF8C2F0E94110BC82FD0E0DC2FC7
:1018C000CC27CC27DF71D0623FCFC1154AE5D407C2
:1018D00008F45BC0CE0190568115904208F059CFB4
:1018E0008D2F8F710E94110B90E0982F88278827E9
:1018F0009F719C012C2BE901E6CFC55AD0E0C45E54
:10190000DE4FC881D0E0D0641FCFCE01E4E09695D1
:101910008795EA95E1F783702C2F269526952370FD
:1019200040E2249F90011124382B8C2F8370C1E05A
:10193000D0E002C0CC0FDD1F8A95E2F7C22BD32B7B
:10194000DC6802CFDC2FCC27C16FD06AFDCECE0180
:101950008370992721E030E002C0220F331F8A955F
:10196000E2F7C695C69590E2C99FE0011124C22B0B
:10197000D32BDA68E9CEDC2FCC27C46FD06AE4CE53
:10198000DC2FCC27C06FD06ADFCE8C2F8F700E94E7
:10199000110B34E0D695C7953A95E1F7CF709C2F9F
:1019A000EC01D069D1CEC9E3D0E0CECEC2EED0E01A
:1019B000CBCEC6EED0E0C8CE8091740281111092D9
:1019C0007402089580959091730298239093730206
:1019D00008958091500290911F02981301C00895BC
:1019E0008F5F8770FACFE92FEE0FEE0F9E0F890FF2
:1019F000982F977086958695869523E0829FF001B3
:101A00001124E35FFD4F50E040E080E0219130E0A1
:101A1000092E02C0369527950A94E2F721703327E4
:101A2000042E01C0220F0A94EAF7822B4F5F5F4F0A
:101A30004330510559F70895E92FEE0FEE0F9E0F31
:101A4000890F982F977041E001C0440F9A95EAF7EB
:101A500086958695869593E0899FF0011124E35F32
:101A6000FD4F30E020E070E05191DF011197CB0194
:101A7000022E02C0969587950A94E2F781708195AF
:101A80008527842385278C932F5F3F4F2330310593
:101A900059F708958093980370939A03609399037C
:101AA0008091C0038430F9F48093E9008FEF909126
:101AB000E800815095FD06C095ED9A95F1F700007C
:101AC0008111F5CF8091E80085FF0DC050E040E026
:101AD00063E070E088E993E00E943F038091E800B2
:101AE0008E778093E8000895BC0184E00C944A0D41
:101AF000BC0183E00C944A0D9C0184E08093E900D2
:101B00009FEF8091E800915085FD06C085ED8A9594
:101B1000F1F700009111F5CF8091E80085FF0CC02E
:101B200050E040E066E070E0C9010E943F03809110
:101B3000E8008E778093E8000895CF93DF93EC015F
:101B4000809115018823B1F18091960387FF32C0FF
:101B500060E284E08093E9008FEF9091E80081508B
:101B600095FD06C095ED9A95F1F700008111F5CF2E
:101B70008091E80085FF1BC08091150170E050E066
:101B800040E0811104C050E040E068E070E0CE0128
:101B90000E943F038091E8008E778093E80080E206
:101BA000FE01AEE9B3E001900D928A95E1F7DF9175
:101BB000CF91089568E081E0CDCF81E08093E0008F
:101BC00080E28093D8001092C9008FE19EE40197D3
:101BD000F1F700C0000087E090EBDC018093010486
:101BE00090930204A0930304B093040488E19CE062
:101BF0000FB6F894A895809360000FBE9093600094
:101C0000FFCF219A35B13D7F25B122604FB7F894BF
:101C10008EE293E0FC015191CF0168E025B900000C
:101C200000C057FF35B9550F000000C000C000C00C
:101C300035B900C06A9591F7F3E08B389F0751F7EB
:101C40004FBF8FE594E00197F1F700C000000895C1
:101C5000CF93DF93CFE8D1E060E0CE010E94242C47
:101C60002196C11584E0D807B9F7DF91CF91089587
:101C70006F927F928F929F92AF92BF92CF92DF929C
:101C8000EF92FF920F931F93CF93DF9384E7C82EB9
:101C900083E0D82E9DE6E92EF12CE701EC97360182
:101CA0001BC0F50185909490692DC8010E94242CD9
:101CB000682DC80101960E94242C82E0A80EB11C58
:101CC0000E5F1F4FC017D10761F78AE0680E711CC5
:101CD0002A96CE15DF0529F08E010A50110953010D
:101CE000E0CF7E018CE3E80EF11C8CE3C80ED11C22
:101CF00085EDE81681E0F80681F6DF91CF911F911E
:101D00000F91FF90EF90DF90CF90BF90AF909F909A
:101D10008F907F906F900895CF93C82F6FEF8111B0
:101D200063E283E290E00E94242C6FEFC11167E030
:101D300084E290E00E94242C6FEFC11161E085E203
:101D400090E0CF910C94242C80E00E948C0E60E0F7
:101D500086E290E00E94242C0E94380E0E94280EF9
:101D600081E00C948C0E0F931F93CF93DF93C42FBD
:101D7000D0E0CC0FDD1F2AE0629FC00DD11D1124E1
:101D80003CE3839FC00DD11D1124CE0187960E9494
:101D9000062C082F10E0102F0027CE0188960E94F5
:101DA000062C9801282BC901DF91CF911F910F912B
:101DB0000895462F863038F4763028F4653018F4CC
:101DC000672F0C94B30E90E080E00895CF92DF92DD
:101DD000FF920F931F93CF93DF936C010091000448
:101DE00080917502082BC7E0D0E010E0FC2EC801FE
:101DF0000C2E02C0959587950A94E2F780FD0CC0E1
:101E00002197A0F7F12C8F2DDF91CF911F910F918A
:101E1000FF90DF90CF900895B6018C2F0E94D90ECD
:101E20000E94540B019761F3EECFCF93DF93EC0147
:101E30000E94E60EBE010E94D90EDF91CF910C9454
:101E4000540BFC01808191810E94150F92959F7027
:101E5000963091F058F4925F9F70923058F4803F22
:101E600019F030F4883E30F481E008959A5FF4CFA1
:101E7000843FD1F380E00895883EB0F3813FD1F7ED
:101E8000F3CF83E290E00E94062C833289F484E24F
:101E900090E00E94062C873059F485E290E00E9481
:101EA000062C91E0813009F090E0892F817008952F
:101EB00080E0FCCFCF9384E090E00E94062CC82FF6
:101EC00082E290E00E94062C982F8C2FCF910895EB
:101ED0001F93CF93DF93EC01FC01E553FE4F80810C
:101EE0006823C9F00E94D02B182F0E94D02B8F7727
:101EF000782F20E8720F08F47FEF612F8091D103D3
:101F00000E948F07462F282F672FCE01DF91CF9198
:101F10001F910C949506DF91CF911F910895DF9248
:101F2000EF92FF920F931F93CF93DF938C01FC01ED
:101F3000E553FE4F8081682381F1D090D003D0918A
:101F4000D103C091CF03EC2EF12C0E94D02B282F6F
:101F5000C7018C549F4F68E671E00E94632B8E1975
:101F60009F0997FD0396959587959595879523707D
:101F70006C2F289F600D11247D2D8D2F0E948F07BF
:101F8000462F282F672FC801DF91CF911F910F9106
:101F9000FF90EF90DF900C949506DF91CF911F9109
:101FA0000F91FF90EF90DF9008959F92AF92BF92B4
:101FB000CF92DF92EF92FF920F931F93CF93DF9315
:101FC000182F80911301811323C09091CE03937039
:101FD0002091120130E081E09217130609F480E0AD
:101FE0008170809318018091D30390911701981705
:101FF00039F08093170140E060E080E00E94930692
:10200000193160F4E12FF0E0E355F34D0C94772B98
:1020100081E0E6CF80911801811120C0C0E080915D
:1020200016018F5F80931601C1110CC082E080936E
:10203000140180911801811105C0111103C083E0C2
:1020400080931401DF91CF911F910F91FF90EF903A
:10205000DF90CF90BF90AF909F90089540E060E0F8
:1020600080E00E949306DACFC091160187E0C89FF6
:10207000C02D112407E00C0FF02E003210F0FFE10C
:10208000FF2E6091CF037091D0038091D1030E9405
:102090008F07E62ED72EC82ED0E0CF1528F0C1E04E
:1020A0000F3108F4BCCFBACFFE01E553FE4F80815B
:1020B00090911701892331F02C2D4E2D6D2DCE01DD
:1020C0000E9495062196E9CFC091160187E0C89F2E
:1020D000C02D112407E00C0FF02E003210F0EFE1BC
:1020E000FE2ED090D003E090D103D091CF036D2F7E
:1020F0007D2D8E2D0E948F07C62EB72EA82E6091A3
:10210000D2036D0F7D2D8E2D0E948F07E62ED72EC8
:10211000982ED0E0CF1518F6FE01E553FE4F9081C2
:1021200080911701892359F0292D4E2D6D2D90FD99
:1021300003C02A2D4C2D6B2DCE010E9495062196B1
:10214000E9CFC091160187E0C89FC02D112407E098
:102150000C0FE02E003210F07FE1E72ED090D0037C
:10216000C090D1032091D20360E4F62E3F2D329F20
:10217000312D1124F32ED0E0CE1508F090CFFE01C2
:10218000E553FE4F8081909117018923B9F0FE013C
:10219000EE0FFF1FE159FE4F878D82958F70609182
:1021A000CF038F9D600D11247D2D8C2D0E948F07F4
:1021B000462F282F672FCE010E9495062196DCCF4F
:1021C000C091160187E0C89FC02D112407E00C0FB5
:1021D000E02E003210F04FE1E42ED090D003C090FA
:1021E000D1032091D20330E4F32E3F2D329F312DC5
:1021F0001124F32ED0E0CE1508F051CFFE01E553A7
:10220000FE4F8081909117018923D9F0FE01EE0FD6
:10221000FF1FE159FE4F668DF69EB001112425E0A7
:10222000759567952A95E1F78091CF03680F7D2D0D
:102230008C2D0E948F07462F282F672FCE010E94DA
:1022400095062196D8CFC091160187E0C89FC02D72
:10225000112407E00C0FF02E003210F08FE1F82E61
:10226000E090CF03D091D003D090D1036091D203FE
:102270006695669566958091CA039091CB030E94FE
:1022800085070E94FE06805887FD8195880F282FBC
:102290003D2D239F212D1124822F6E2D7D2F0E94F5
:1022A0008F07E62ED72EC82ED0E0CF1508F0F7CE38
:1022B000FE01E553FE4F808190911701892331F093
:1022C0002C2D4E2D6D2DCE010E9495062196EDCF21
:1022D00081E996E00E94ED08C82FA1CE88E896E03B
:1022E000F9CF8FE796E0F6CF81E796E00E943B09B1
:1022F000F3CFC091160187E0C89FC02D1124D7E00D
:10230000DD2EDC0ECD2CEFE1ED1510F4BFE1CB2E70
:102310006091D20366958091CA039091CB030E948D
:102320008507B82ED0E0CE01880F991F9C01215956
:102330003E4F7901CC1530F0C1E03EE13D1508F08B
:102340006ECE6CCEFE01E553FE4F80819091170159
:102350008923C1F0F701278D2052330B468D40575A
:10236000550B6091CF037091D0038091D1030B2D59
:102370000E94E6060E948F07462F282F672FCE0166
:102380000E949506F2E0EF0EF11C2196D3CF8BEC64
:1023900096E0ACCFC091160187E0C89FC02D1124F4
:1023A000F7E0FF2EFC0ECF2C8FE18F1510F4EFE13C
:1023B000CE2E6091D203669566958091CA03909166
:1023C000CB030E948507D82E80E48D0D0E94FE0667
:1023D00060E8B62EB80E8D2D0E94FE0670E8A72E7E
:1023E000A80ED0E0CC1530F0C1E0FEE1FF1508F0FA
:1023F00016CE14CEFE01E553FE4F80819091170159
:102400008923A1F06091CF037091D0038091D10313
:10241000ED2C0C2F2A2D4B2D0E949D060E948F071C
:10242000462F282F672FCE010E9495062196DACFDE
:10243000C0911801C1111EC06091D20320E1620F4A
:1024400008F46FEF8091CA039091CB030E94850737
:102450006AE070E00E944F2B892B09F0DFCD0E94CB
:10246000D02B6FE170E00E94632B609117010E94F6
:102470008F0FD5CDC091160187E0C89FC02D1124C4
:1024800007E00C0F802F003208F08FE1D0E0E82E3B
:10249000F12CCE15DF050CF002CE60911701CE01B4
:1024A0000E948F0F2196F5CFC0911801C1111EC057
:1024B0006091D20320E1620F08F46FEF8091CA03AC
:1024C0009091CB030E94850765E070E00E944F2B3E
:1024D000892B09F0A3CD0E94D02B6FE170E00E9400
:1024E000632B609117010E94680F99CDC09116016E
:1024F00087E0C89FC02D112407E00C0F802F003209
:1025000008F08FE1D0E0E82EF12CCE15DF050CF0BD
:10251000C6CD60911701CE010E94680F2196F5CFBC
:10252000C091160187E0C89FC02D112407E00C0F51
:10253000F02E003210F05FE1F52ED090D003E09045
:10254000D103D091CF036091D203669566956695CD
:102550008091CA039091CB030E9485070E94FE06DA
:10256000805887FD8195880F682F2CE0629F612D30
:1025700011246D0F7D2D8E2D0E948F07E62ED72EF4
:10258000C82ED0E0CF1508F08ACDFE01E553FE4FEE
:10259000808190911701892331F02C2D4E2D6D2DC6
:1025A000CE010E9495062196EDCF8DE197E092CE67
:1025B00080E696E08FCE40919A0250919B02609106
:1025C0009C0270919D028091CA039091CB03A091CF
:1025D000CC03B091CD0384179507A607B70708F47D
:1025E0001DCD0E944007082F0E9440079FE1891BD4
:1025F000F0F7890FC82FD0E0FE01E553FE4F809120
:1026000017019081892309F490C020E040E060E048
:1026100001FD13C00E944007082F0E944007782F39
:1026200076952FE7720F08F47FEF602F8091D1032A
:102630000E948F07462F282F672FCE010E949506F4
:102640002091D20330E1230F08F42FEF60E1822FB5
:1026500090E00E948507BC0184EF91E00E944F2B1F
:102660008091CA039091CB03A091CC03B091CD038C
:10267000860F971FA11DB11D80939A0290939B0214
:10268000A0939C02B0939D02C9CC4091FB02509153
:10269000FC026091FD027091FE028091CA0390914C
:1026A000CB03A091CC03B091CD0384179507A60767
:1026B000B70708F4B3CC809118018823D9F040E023
:1026C00060E080E00E9493064EE9E42E42E0F42EA2
:1026D000D0E0C0E00FE70E94400781FF28C0F7016B
:1026E0001082118212822196F3E0EF0EF11CCF319D
:1026F000D10589F7C091160187E0C89FC02D11242C
:1027000007E00C0FD02E003210F02FE1D22EEC2E6D
:10271000F12C23E0C29FE0011124C256DD4FED14DD
:1027200018F1EEE9F2E00F31C0F5C1E078CC0E947B
:102730004007B82E0E9440078695782F700F08F446
:102740007FEFCE01880F991F8C0F9D1F9C01225691
:102750003D4F69016B2D8091D1030E948F07F601D7
:10276000608371838283BFCFF701E553FE4F808181
:1027700090911701892331F02A8148816981C7012D
:102780000E94950623963FEFE31AF30AC8CF838190
:102790009481A58181939193A19382E0E83FF8070A
:1027A000B1F70E94400781FF2BC01092F8021092EF
:1027B000F9021092FA022091D20330E1230F08F4BB
:1027C0002FEF60E1822F90E00E948507BC0188EB2B
:1027D0009BE00E944F2B8091CA039091CB03A09164
:1027E000CC03B091CD03860F971FA11DB11D80931F
:1027F000FB029093FC02A093FD02B093FE020ECC6C
:102800000E944007C82F0E9440078695782F2FE727
:10281000720F08F47FEF6C2F8091D1030E948F0715
:102820006093F8027093F9028093FA02C4CFC091CA
:10283000160187E0C89FC02D112407E00C0FD02E91
:10284000003210F09FE1D92E2091D20331E0230F06
:1028500008F42FEF30E050E040E06FEF7FEF80E0D2
:1028600090E00E94482C7901D0E02C2FCD1508F083
:1028700016CCFE01E553FE4F80819091170189230C
:1028800011F14091D4034150042E000C550B47FF29
:102890001CC0C7016091D20321E0620F08F46FEF02
:1028A0000E948507AC016091CF037091D0038091A5
:1028B000D1030E9497060E948F07462F282F672F6B
:1028C000CE010E9495062196D0CFFA01EC52FC4F22
:1028D000818982130AC0FA01EE0FFF1FEC52FC4FF0
:1028E000818D928D8E159F05A8F241505109CFCF51
:1028F0008091D40321E0382F321B08F430E0832F7D
:1029000067E476E00E942308E7CC67E476E080E0A5
:10291000F9CF8091D40321E0382F321B08F430E046
:10292000832F6FE276E0EECF8091D40321E0382F41
:10293000321B08F430E0832F69E176E0E3CF46E014
:1029400050E06CE170E08EEC93E00E94142C109249
:102950002D0308958F929F92AF92BF92CF92DF92F4
:10296000EF92FF921F93CF93DF9380912803909172
:102970002903A0912A03B0912B032FB7F8948090DC
:10298000920390909303A0909403B09095032FBF6F
:1029900075016401C81AD90AEA0AFB0A2FB7F8942C
:1029A0004091920350919303609194037091950329
:1029B0002FBF409328035093290360932A037093F9
:1029C0002B031091FF02EFEFF2E0C12FD0E001974F
:1029D000AF4FBF4F88199909AA09BB091D1327C01A
:1029E000C093FF0280912C03811134C09091CE03DB
:1029F000892F837019F0892F8695869590911401FF
:102A0000913009F440C0992339F1923009F448C05B
:102A1000933009F450C0DF91CF911F91FF90EF9058
:102A2000DF90CF90BF90AF909F908F900895218DB1
:102A3000328D4901B12CA12C88159905AA05BB0539
:102A400020F4C150DF5F3296C9CF2C0D3D1D328F6F
:102A5000218FF8CF80E0D2CF109216014093CA03A5
:102A60005093CB036093CC037093CD0389E2EFEFD7
:102A7000F2E0A4EDB3E001900D928A95E1F781E0D8
:102A800080931401C8CFDF91CF911F91FF90EF90F9
:102A9000DF90CF90BF90AF909F908F900C94D50F08
:102AA000809313018091CE038370809312010E9462
:102AB000010E83E0E5CF80912D0381110E949F14C8
:102AC0004091CA035091CB036091CC037091CD0328
:102AD0002FB7F8948091920390919303A09194035F
:102AE000B09195032FBF841B950BA60BB70B409796
:102AF000A105B10508F48FCF109214018CCFEEEC34
:102B0000F3E08DE180838091190190911A01A091E9
:102B10001B0181839283A3838FE784838FEF858357
:102B20000C949F147F928F929F92AF92BF92CF92FC
:102B3000DF92EF92FF920F931F93CF93DF9300D01A
:102B400000D000D0CDB7DEB78E010F5F1F4F86E0FB
:102B5000D8011D928A95E9F78DE4882E81E0982EA0
:102B600092E5E92E91E0F92E77247394CC24C39456
:102B7000D12C38E5A32E31E0B32EF40181914F0121
:102B80008F3F09F443C0F894E82FE295EF70F0E02E
:102B900021A18F70A60102C0440F551F8A95E2F74C
:102BA000CA01922F982B91A392A18095892382A389
:102BB000789400C062E571E0F801472D4095DB0193
:102BC0009D91BD0180819F3F09F467C0292F229507
:102BD0002F7030E0D90190962C9130E09F7002C0A8
:102BE000359527959A95E2F720FD57C08729808370
:102BF0003196A616B70619F7F401319780818F3FF9
:102C000011F00E94FA0AB0EABA95F1F7770CE814CD
:102C1000F90409F0B2CF46E050E0B80189E792E04C
:102C20000E94E02BFF24F394009709F4F12C892BE8
:102C3000B1F186E0F801A9E7B2E001900D928A9522
:102C4000E1F781E0809378020E948C0490937702F0
:102C50008093760280917602909177020E947D04A3
:102C6000059708F1809179028093870280917A021A
:102C70008093880280917B028093890280917C02FC
:102C800080938A0280917D0280938B0280917E02E4
:102C900080938C021092780206C08423A8CF809182
:102CA00078028111D7CF8F2D26960FB6F894DEBF0C
:102CB0000FBECDBFDF91CF911F910F91FF90EF908D
:102CC000DF90CF90BF90AF909F908F907F900895AE
:102CD0008091730290917202892B8093EC01909104
:102CE00074029923A1F0892B8093EC018091150146
:102CF0008823D9F18091960387FF37C08EE1EEEEED
:102D0000F1E090E0815098F591110E94DC0C40E2D6
:102D100050E062E572E08CEE91E00E94E02B892B9E
:102D200059F180E2ECEEF1E0A2E5B2E001900D9203
:102D30008A95E1F7E0918D03F0918E033097E1F0F1
:102D400080911501882359F08091960387FF07C071
:102D50008091EC018093ED0186E08093EC0102808C
:102D6000F381E02D8CEE91E0099486E0C8CF2191AB
:102D7000222341F29F5FC6CF089590E080E00E9439
:102D80000D0590E080E00E94F704109272020E940C
:102D9000681686E0E4E9F2E0DF011D928A95E9F722
:102DA00010928E0210928D0210928F020C94BC0928
:102DB000809300040C94BD1680910004982F9670A7
:102DC000963019F488600C94D816877FFCCF21E0E8
:102DD00030E001C0220F8A95EAF720958091000427
:102DE00082230C94D8169091510280958923809368
:102DF0005102282F277091F4282F082E000C330B36
:102E00009217130659F09091970392FD07C085958C
:102E1000859585950E94E716109251020895CF93EB
:102E2000C0919703C2FB992790F9981799F080FBFE
:102E3000C2F9C09397036091960384E090E00E94EA
:102E4000242C6C2F82E290E00E94242C82E0CF910F
:102E50000C94F316CF91089521E030E001C0220FC9
:102E60008A95EAF780910004822B0C94D8168093FF
:102E700075020C94BD161092730280911501EEEE4E
:102E8000F1E0882359F08091960387FF07C08EE117
:102E9000DF011D928A95E9F70C94BD1686E0F8CF04
:102EA0001F93CF93DF93CDB7DEB7AA970FB6F894F1
:102EB000DEBF0FBECDBF82EC93E02091F100DC01BC
:102EC0002D93CD01B3E08A3C9B07B9F78091C303F2
:102ED000833009F472C0B8F4813009F449C08230FB
:102EE00009F4B3C08091E80083FF8BC28091C203D4
:102EF0009091C3039A3008F084C2E92FF0E0EA53BE
:102F0000F34D0C94772B8A3009F48EC08B3009F482
:102F100071C0893039F78091C203813219F78091ED
:102F2000C6039091C703009711F00297D9F68091DC
:102F3000E800877F8093E8008091E80082FF38C036
:102F40009091F3008091F200029731F48091F100AA
:102F5000813011F0863021F48091F10080939D033F
:102F60008091E8008B778093E8000E946903BACFD4
:102F70008091C203813A09F0B5CF8091E800877F44
:102F80008093E8008091C6039091C703892B61F478
:102F900060E28EE993E070E00E941B048091E800FB
:102FA0008B778093E8009ECF60E090E080E0F3CFE5
:102FB0008091C0038111C0CF95CF8091C203813A27
:102FC00009F090CF8091C6039091C703892B09F037
:102FD00089CF8091E800877F8093E8008091E800A6
:102FE00080FFFCCF809115018093F1008091E80073
:102FF0008E77B9CF8091C203813209F073CF80916F
:10300000C6039091C703892B09F06CCF8091E8002B
:10301000877F8093E8000E9469038091C4038093B6
:1030200015010E943B175ECF8091C203813209F0E7
:1030300059CF8091E800877F8093E8000E94690360
:103040008091C50380939C034DCF8091C203813A48
:1030500009F048CF8091E800877F8093E800809155
:10306000E80080FFFCCF80919C03BECF803899F0B0
:10307000823809F0C6C18091C6038F70873008F08E
:10308000C0C18093E9008091EB0085FB882780F91F
:103090001092E90006C08091BE039091BF03911188
:1030A00082609091E800977F9093E8008093F10010
:1030B0001092F1008091E8008E779FC1882309F477
:1030C0008DC1823009F09DC18091C403811190C1EE
:1030D0008091C6038F702FEF280F263008F091C122
:1030E0008093E9002091EB0020FF82C1933031F4FE
:1030F0008091EB0080628093EB007AC19091EB00AD
:1031000090619093EB0021E030E001C0220F8A959E
:10311000EAF72093EA001092EA008091EB008860C1
:10312000EACF81116EC11091C4031F778091E30033
:103130008078812B8093E3008091E800877F8093E3
:10314000E8000E9469038091E80080FFFCCF809135
:10315000E30080688093E30082E0111183E08093B4
:10316000C0034FC18058823008F04BC12091C40386
:103170003091C5032C3DE3E03E07A1F583E08A834F
:103180008AE289834FB7F894DE01139620E03EE08F
:1031900051E2E32FF0E050935700E49120FF03C089
:1031A000E295EF703F5FEF708E2F90E0EA30C0F055
:1031B000C7968D939D932F5F243159F74FBF809110
:1031C000E800877F8093E8006AE270E0CE01019614
:1031D0000E941B048091E8008B778093E80011C166
:1031E000C096E7CF8091C6039091C703432F552720
:1031F0004330510509F44AC078F54130510509F4CE
:103200007AC08BE590E0ECEDF4E04230510509F036
:10321000F8C02091E800277F2093E8002091C803A0
:103220003091C9038217930708F49C0140E02115EF
:10323000310509F065C0411163C08091E80082FD4D
:10324000C9CF8091C003882329F2853019F280917B
:10325000E80083FFF2CFBECF4132510509F43CC0F4
:103260004232510509F0CDC08330910508F0C9C044
:10327000FC01EE0FFF1FED59FE4F0190F081E02D94
:10328000805A9E4FDC018C9190E01AC03327213088
:103290003105D1F02115310561F02230310509F0F9
:1032A000B0C0E9E4F5E0E4918E2F90E0E9E4F5E0C8
:1032B00007C0E5E6F5E0E4918E2F90E0E5E6F5E065
:1032C000009709F49EC0A5CFE5E5F5E0E4918E2FC7
:1032D00090E0E5E5F5E0F4CF8330910508F091C08A
:1032E000880F991FFC01E759FE4F0190F081E02DF6
:1032F00089E090E08ECF82E190E0E7E3F5E089CFCE
:103300008091C003882309F465CF853009F462CF2A
:103310008091E80083FD5ECF8091E80082FD8DCF33
:103320008091E80080FF83CF9091F3008091F200BC
:103330002115310519F08830910550F041E00897CA
:1033400009F040E08091E8008E778093E8006FCF2D
:1033500044914093F1003196215031090196E8CF14
:10336000803809F04EC08091E800877F8093E800A4
:103370008091C1038093F1009DCE811142C01091D4
:10338000C4031230F0F58091E800877F8093E80055
:103390001093C1030E946903112311F084E005C05A
:1033A0008091E30087FDFACF81E08093C00342E083
:1033B00061EC81E00E94880342E261EC84E00E94BB
:1033C000880342E261EC82E00E94880342E260EC02
:1033D00083E00E9488038091C00313C08091C403DE
:1033E000813079F481E0933009F080E08093BF036D
:1033F0001092E9008091E800877F8093E8000E94A6
:1034000069038091E80083FF0AC08091E800877F0C
:103410008093E8008091EB0080628093EB00AA9695
:103420000FB6F894DEBF0FBECDBFDF91CF911F91D5
:103430000895882321F00E94E20C0C9468160895E8
:10344000882339F090917302982B909373020C9417
:1034500068160895882379F19CEF980F913A38F413
:10346000682F8CEE91E00E9498040C94681690E20C
:10347000980F983050F4877091E001C0990F8A95A9
:10348000EAF7892F0E94E20CF0CF9BE5980F93306A
:1034900020F490E080E00C940D0598E5980F9731AA
:1034A00020F490E080E00C94F704803F20F00E942C
:1034B000E3090C94BC090895CF93C82F882309F41D
:1034C0006FC08CEF8C0F813AC0F580911501882375
:1034D00011F18091960387FF1EC0EC2FE695E695CB
:1034E000E695F0E0E451FE4F828190E04C2F47706A
:1034F00021E030E002C0220F331F4A95E2F7822319
:103500009323892B91F06C2F8CEE91E00E9498040C
:103510000E9468160AC0EEEEF1E084EF91E021917E
:10352000C21789F38E179F07D1F76C2F8CEE91E0AD
:103530000E94C204CF910C94681680E28C0F8830F0
:1035400068F4C77021E030E001C0220FCA95EAF7A5
:1035500080917302822B80937302ECCFEBE5EC0F2A
:10356000E33040F4F0E0E45EFE4F808190E0CF91E4
:103570000C940D05E8E5EC0FE73150F4F0E0EE0FA8
:10358000FF1FE15EFE4F80819181CF910C94F70483
:10359000C03F30F08C2F0E949E0ACF910C94BC0942
:1035A000CF9108951F93CF93DF93182FD0E0C0E001
:1035B000893311F4C0E5D0E0812F0E945C1A209776
:1035C00031F4812FDF91CF911F910C942A1A8FE94A
:1035D0009FE00197F1F700C000002197F0CF0F9313
:1035E0001F93CF93DF93C62FD42F022FFC0182812C
:1035F0008823A1F06093FF030E948C049093FE0344
:103600008093FD03C77081E001C0880FCA95EAF777
:10361000DF91CF911F910F910C94201A8091FF039D
:10362000681335C08091FD039091FE030E947D04D4
:10363000883C910560F510E21D0FCD17B9F080E2CE
:103640008C0F883040F4C77081E001C0880FCA95A4
:10365000EAF70E94191A183048F481E09D2F9770FC
:1036600001C0880F9A95EAF70E94201A802F0E94C5
:10367000D21A183098F4D77081E001C0880FDA951B
:10368000EAF7DF91CF911F910F910C94191AC7702F
:1036900081E001C0880FCA95EAF7F3CFDF91CF919F
:1036A0001F910F91089590E080E00E940E2C893EBA
:1036B0009E4F11F40C94410F80E0089569EE7EEF67
:1036C00090E080E00E94422C60E082E090E00E9466
:1036D000242C60E083E090E00E94242C109275027C
:1036E00060E084E090E00E94242C60E082E290E0C0
:1036F0000E94242C60E085E090E00E94242C60E091
:1037000086E090E00E94242C6FEF87E090E00E941A
:10371000242C40E050E0BA0188E090E00E94362C72
:1037200060E08DE090E00E94242C40E050E0BA017F
:1037300088E190E00E94362C60E087E190E00E94F2
:10374000242C40E050E0BA018CE190E00E94362C3D
:1037500070E060E080E290E00E94422C40E050E0A7
:10376000BA0188E190E00E94362C80E00E948C0E25
:103770000E94A40E40E050E0BA018FE090E00E9469
:10378000362C40E050E0BA0183E190E00C94362CF6
:103790003F924F925F926F927F928F929F92AF92E1
:1037A000BF92CF92DF92EF92FF920F931F93CF932E
:1037B000DF9300D000D00F92CDB7DEB78C01FC01B3
:1037C00083819481892B31F08081918189238F3F7E
:1037D00009F079C50F900F900F900F900F90DF9127
:1037E000CF911F910F91FF90EF90DF90CF90BF90FE
:1037F000AF909F908F907F906F905F904F903F9091
:1038000008950E94E60EF82E682F89819A810E9401
:103810001C0D69817A818F2D0E94D90E7C01F801DF
:103820008281882309F442C5970122513F45203106
:10383000310508F00EC58FEF93E00E94062CFEEED6
:10384000EF0E5FE8852E992493948823A1F180914F
:103850005102877009F4BECFF8018281882309F4F0
:10386000B9CF8091970382FDB5CF82E00F900F9082
:103870000F900F900F90DF91CF911F910F91FF90BC
:10388000EF90DF90CF90BF90AF909F908F907F9000
:103890006F905F904F903F900C94F316811424E04A
:1038A0009206A9F2C4010E94062C811101C0EA947B
:1038B0003FEF831A930AE110F1CF1C821B8244244C
:1038C00043944AE0342E74018FEFE81AF80AC401D9
:1038D0000E94062C89831A82882309F4B8CF9FEFAF
:1038E000980F933000F58A83498292E0890E911CEB
:1038F000C7010E94062C8B83882309F4A8CFFE0100
:1039000031967F01F70120812223E9F2213009F06D
:1039100049C091818281913041F4F2E0EF0EF11CB7
:103920000E94D21A09C04701EACF923049F422E03E
:10393000E20EF11C0E945C1A3FEFE31AF30AE2CF99
:10394000933031F432E0E30EF11C0E942A1AF4CFD6
:10395000943021F08FEFE81AF80AEECF92E0E90EEA
:10396000F11C30E020E0B7016F5F7F4FF70141812C
:103970008053990B8A30910550F021503109E0F2C3
:103980008FE99FE00197F1F700C00000F6CF329E6B
:10399000F001339EF00D11249C012E0F3F1F842F48
:1039A0007B01E1CFE22FF0E0EC50FE4F5490822FEC
:1039B00086958695869590E0FC01EC51FE4F6490CB
:1039C0002770712C022E02C0759467940A94E2F756
:1039D000E1E06E227724FC01EC52FE4FA490B12C62
:1039E000022E02C0B594A7940A94E2F7F1E0AF2248
:1039F000BB24FC01EC53FE4FC490D12C02C0D594E3
:103A0000C7942A95E2F721E0C222DD2461147104F3
:103A100019F081EE0E945C1AA114B10419F086EE2F
:103A20000E945C1A852D0E94D21AAB2819F086EEEE
:103A30000E942A1A672819F081EE0E942A1ACD28BE
:103A400009F47ACF8CE26CCF81E00E942C170E949F
:103A5000DC16FDCE81E00E94E716F9CF82E0F5CFBB
:103A600095EFE9169CE5F90609F46CC008F466C008
:103A700027E245EE66EEF6EFEF16FCE5FF0609F4E9
:103A800011C4882309F430C41092FF0323E0E21626
:103A90002DE5F20608F05DC03AEFE3163CE5F306CB
:103AA00030F4C70182509C45449708F05EC00E94E4
:103AB0005A0F9093970380939603E1E1EE16ECE59D
:103AC000FE0609F438C108F0A6C029E0E2162CE58C
:103AD000F20609F41EC108F06FC085E0E8168CE517
:103AE000F80609F40AC108F058C0E3E0EE16ECE568
:103AF000FE0609F4F8C008F0FCC0809196038160CE
:103B000022E0E2162CE5F20609F4F0C0609196037B
:103B1000F090970384E090E00E94242C6F2D82E2C5
:103B200090E00E94242C0E943B1791CE27E245EEA4
:103B300065EEB8C326E241EE60EEB4C327E245EE7F
:103B400064EEB0C326E241EE62EEACC328E241E08F
:103B5000EFCF81E6E8168DE5F80609F4A8CF95EADF
:103B6000E9169DE5F90609F4A2CF36E1E3163CE536
:103B7000F30609F037C4809173028A7A91E009F460
:103B800090E090930C0269E2811165E38CEE91E084
:103B90000E94C2040E9468165ACE809196038062E9
:103BA00037E0E3163CE5F30609F4A0C008F4ADC025
:103BB0008091960380649AC0809196038B7F9DE0EC
:103BC000E9169CE5F90609F491C0B0F480919603DA
:103BD0008E7FFBE0EF16FCE5FF0609F487C08091BD
:103BE00096038C602CE0E2162CE5F20608F47EC009
:103BF000809196038D7F7AC0809196038F7E3FE0FF
:103C0000E3163CE5F30609F471C008F488C080911E
:103C100096038F7D6BC09DEFE9169CE5F90609F4CC
:103C200086C078F5F5E1EF16FCE5FF0609F491C0D2
:103C3000A0F480919603837F33E1E3163CE5F3061D
:103C400009F454C008F47BC00E943B17909196037E
:103C5000892F97FB87F9805849C09BEFE9169CE5AF
:103C6000F90609F44EC008F05EC0809197038160A8
:103C7000FAEFEF16FCE5FF0609F048CF80939703B3
:103C800045CF21E0E2162DE5F20609F46EC0B8F446
:103C90008FEFE8168CE5F80609F457C0809197037A
:103CA0008360E1149DE5F90648F380919703982F0E
:103CB000909591708E7F892B90FB81F9DFCFE1E6A3
:103CC000EE16EDE5FE0609F456C0F5EAEF16FDE541
:103CD000FF0609F457C022E0E2162DE5F20609F0CE
:103CE00015CF60E043C08091960382608093960375
:103CF0000DCF809196038460F9CF80919603886000
:103D0000F5CF809197038260B9CF8091960380614F
:103D1000EDCF0E943B17809196038068E7CF80919A
:103D20009603877FE3CF809197038E7FA7CF809103
:103D300097038D7FA3CF809196038F7BD7CF0E946F
:103D40003B17809196038F77D1CF809197038C7F1B
:103D500095CF8091960382FB992790F921E09227D5
:103D600090FB82F990FB83F9C1CF61E08EE090E097
:103D70000E94242CCBCE90919603892F8F7E94FFA6
:103D80008061B4CF90919603892F8E7F90FF8160E0
:103D9000ADCF80910C0269E2811165E38CEE91E078
:103DA0000E949804F7CE44E056E06EE076E00E9470
:103DB0002F054DCD4EE056E064E076E0F8CF47EDBC
:103DC00055E061EE75E0F3CF41EE55E067ED75E04B
:103DD000EECF4DEB55E06AEC75E0E9CF4AEC55E0EB
:103DE0006DEB75E0E4CF40EB55E063EA75E0DFCFC3
:103DF00044E755E062E875E0DACF42E855E064E771
:103E000075E0D5CF61E081E00E94EB0520CD61E057
:103E100087E0FACF0E943B178FEF94E3ECE08150EC
:103E20009040E040E1F700C000000E94DD0D81E01D
:103E3000FFC280E0FDC2C7010E94F30CD82E09C367
:103E40002F2D2F70C22E8F2D807F19F0C29490EFEE
:103E5000C922DD20B9F0CC2069F080E28E0D8830D7
:103E600010F0811009C080917302C82AC0927302B9
:103E70000E9468168E2D4DC080917202C82AC09291
:103E80007202F6CF8E2D0E942A1ACC2009F443C06C
:103E900080E28E0D883010F0811004C08C2D0E94BD
:103EA000E20C06C0C09480917202C822C0927202D5
:103EB0000E94681630C03F2D3F70C32E8F2D807F2B
:103EC000803219F0C29480EFC822882089F081E006
:103ED000881609F47FC0DD2009F489C0BB2009F4ED
:103EE0007FC0F801858180FFC5CF8F70858378C042
:103EF0002091970322FF4BC0DD2009F442C0CC2063
:103F000039F080917302C82AC09273020E94681629
:103F100080E00E945C1A292D2850330B2430310593
:103F200010F40E942305AA2009F454CC8091510278
:103F300080FD50CCF80112828595859585950E946B
:103F40002C17C8010E94C81B809151028595859548
:103F500085950F900F900F900F900F90DF91CF915C
:103F60001F910F91FF90EF90DF90CF90BF90AF9097
:103F70009F908F907F906F905F904F903F900C94A8
:103F8000E71680E00E942A1ACC2029F287CFDD2094
:103F9000A1F0909174028C2D892BB11003C00E9466
:103FA000201AB9CFE1E0BE12FACF22FDB4CF9817A4
:103FB00009F4B1CF80937402AECFB11006C00E9455
:103FC000DC0C8C2D0E94191AA6CFF1E0BF1609F463
:103FD000A2CFF5CFDD2031F025E02B1508F49BCFE3
:103FE0008C2DDDCF34E03B1508F495CFEACFBB2014
:103FF00041F3F9E38F1209C02FEF37EE83E0215030
:1040000030408040E1F700C000008E2D0E942A1A47
:1040100082CF8F2D86958695837061F0813009F06F
:104020007ACFC7019370D11002C090E080E00E9467
:10403000F70471CFC7019370D11002C090E080E007
:104040000E940D0568CF8E2DDD2029F00E949E0A6A
:104050000E94BC0960CF0E94E309FACF8F2D8370C4
:1040600091F5D11058CF4E2D429546954770440F8B
:10407000440F8E2D8F70042E01C0880F0A94EAF72A
:104080002E2D2071E4FE07C02FE030E001C0220F8A
:104090004A95EAF720953F2D3695369533703230A4
:1040A00069F050F440917502313029F0822B84235D
:1040B0000E94371730CF842B822BFACF282B809188
:1040C00075028227F5CF8695DD2011F08F2D817046
:1040D000882309F420CF4E2D429546954770440F12
:1040E000440F8E2D8F70042E01C0880F0A94EAF7BA
:1040F0002E2D2071E4FE07C02FE030E001C0220F1A
:104100004A95EAF720953F2D369536953370323033
:1041100069F050F440910004313029F0822B84235F
:104120000E94D816F8CE842B822BFACF282B8091B0
:1041300000048227F5CF9F2D9F70F92EDD2029F0F6
:10414000892F0E942C178E2D2ACF8E2D0E94191A8E
:104150008F2D0E94E716DFCE8E2DE2EF8E16B1F185
:10416000E81570F0F0EF8F16D1F021EF821691F084
:10417000DD2009F45EC0B1107DCE8F2D8F712AC075
:1041800033EF831651F194EF8912F2CF80919703A8
:1041900082FF2FC08F2D8F71DD20D9F21BC0DD2053
:1041A00081F0E4E0EB1508F4B6CE2F2D2F7181E0FD
:1041B00090E001C0880F2A95EAF7909100048927C2
:1041C000AFCFF5E0FB1508F4A6CEEFCF8F2D8F71A2
:1041D000D110BFCF0E942C179ECE80E0DD2009F4C5
:1041E0009FCF9F2D9F7181E001C0880F9A95EAF7BC
:1041F00097CFDD2099F02F2D2F71F22E822F0E9464
:104200002C178091970382FD07C038E0F39EC00110
:1042100011248360809351028F2DDCCF81E00E94B6
:10422000F31681E08B1508F076CE82E00E94F3163B
:1042300072CEBB2059F0893309F0E7CE9FEFE7EE4D
:10424000F3E09150E040F040E1F7DDCE8F2D8F712B
:1042500080CFF0E1EF16FFE5FF0609F4F5CB21E191
:10426000E2162FE5F20609F4F9CB93EFE9169CE587
:10427000F90609F45FCC08F0F3CBF8EDEF16FCE596
:10428000FF0609F453CC29EDE2162CE5F20609F4F9
:104290005DCC37EDE3163CE5F30609F0F2CB26E200
:1042A00041EE61EEC8010E94EF1AD1CA30E1E31677
:1042B0003FE5F30609F4CECB91E1E9169FE5F90657
:1042C000A1F682E0C8CB85E0DE01119601900D9247
:1042D0008A95E1F7F801228189819A81211191CA99
:1042E0000E94F30CF82E95CAF6E1EF16FCE5FF06E6
:1042F00009F44FCD8091730282722AECE2162CE50C
:10430000F20609F470CDE0F595ECE9169CE5F906A6
:1043100009F455CDE0F4F3ECEF16FCE5FF0609F4E3
:1043200042CD08F047CD32ECE3163CE5F30609F048
:1043300081C08091CE0391E089278093CE031092B3
:10434000140180912D03816080932D0380CA97EC26
:10435000E9169CE5F90609F43CCD08F435CDF8ECF6
:10436000EF16FCE5FF0609F439CD43EA55E060EBB2
:1043700075E029ECE2162CE5F20609F418CD5AC0D6
:104380003FECE3163CE5F30609F441CDB8F4ECEC60
:10439000EE16ECE5FE0609F430CD08F429CD2DEC3F
:1043A000E2162CE5F20609F42DCD61E085E03EEC45
:1043B000E3163CE5F30609F427CD3CC086EDE8168C
:1043C0008CE5F80648F461E08AE091EDE9169CE599
:1043D000F90608F419CD3BCAEDE5EE16FE0609F420
:1043E00036CA28C0FAE5EF16FDE5FF0609F41FCD31
:1043F00068F4E1143CE5F30609F40CCD8EEDE81603
:104400008CE5F806B9F40E945E1B21CA9BE5E9160B
:104410009DE5F90609F40DCDECE5EE16EDE5FE0699
:1044200049F48091970382FB882780F991E08927DE
:104430000E940F17F8018281E080F180882309F43F
:10444000FACCC7010E94E60ED82E682FC7010E9441
:104450001C0DB7018D2D0E94D90E0E94540B7C01BA
:10446000882EF801D280B580B2943FE0B3228091CB
:1044700051028770C1F0AD2CDD20B1F08F2D807F0F
:10448000803421F080E28E0D883068F080919703AF
:1044900082FD09C082E00E94F3168091510287706C
:1044A000AA24A3948111A12C9F2C92942FE09222F4
:1044B000FBE0F91508F42FCDE92DF0E0E053F34DC2
:1044C0000C94772B1F93CF93DF9380911E02807FF4
:1044D000A9F480911B02882389F080915002D09129
:1044E0001F026091190270911A02A0911C02B091F2
:1044F0001D02C62FC72316E0D81304C0DF91CF9149
:104500001F91089590E0109711F0CF3F19F4019694
:104510008770F2CF189F9001199F300D1124F90177
:10452000E05EFD4F41814713F2CF40814613EFCF4C
:1045300042814111ECCF438154814A1B5B0B483CC3
:10454000510528F780911E028F70806180931E02B2
:10455000F901EB5DFD4F80818F708061808389E17F
:1045600092E00E94C81BDF91CF911F910C94E90C3F
:10457000AF92BF92CF92DF92EF92FF920F931F9371
:10458000CF93DF93CDB7DEB761970FB6F894DEBF58
:104590000FBECDBF8C0185E0F801DE011D960190B4
:1045A0000D928A95E1F7F801E28089E1A82E82E078
:1045B000B82E60911C0270911D026115710509F4FD
:1045C00032C19091190240911A02892F84238F3FA2
:1045D00009F429C120813181C380D480F0901B026D
:1045E000F601E61BF70BFF2009F4E8C080911E02DC
:1045F000582F507FE83CF10508F0ABC0511177C04F
:10460000FE2C431321C092131FC0E1101DC08F70F8
:10461000806180931E02C5010E94C81B80911E020A
:10462000F80185838F2D61960FB6F894DEBF0FBE1B
:10463000CDBFDF91CF911F910F91FF90EF90DF9051
:10464000CF90BF90AF900895CD2829F0822F83237B
:104650008F3F09F003C180E0F82FF170DF2E80FF5B
:104660003CC08091500240911F0256E0841315C057
:104670002D873E878D859E850E94150F292F2295B7
:104680002F702230F0F0243018F59F70F1F0F8010F
:104690009581907FD1F4D12C1EC090E0589FF001FD
:1046A000599FF00D1124E05EFD4F6181361306C065
:1046B0006081261303C06281E6120FC001968770E5
:1046C000D5CF9F7011F0882331F3805E883018F3C6
:1046D000C8010E94C81BFD2CA5CFEE2009F4A2CF73
:1046E00080911E02816080931E02F12C9BCF4313A8
:1046F00006C0921304C0F801EE2009F479C0C80185
:104700000E94210F882309F1EE20F9F080911E020A
:10471000803270F02091190230911A0238872F836D
:104720001986DB86CA868C87CE0107960E94C81B35
:1047300086E0F801A9E1B2E001900D928A95E1F7D7
:104740000E946222FF24F3946DCFC8010E94C81B0F
:10475000F9CF51110AC089E192E00E94C81B86E09E
:10476000F50111928A95E9F7C0CF43130FC0921358
:104770000DC0E1100BC0F8018583C8010E94C81B61
:1047800086E0F50111928A95E9F74CCFC8010E94A5
:10479000210F8823D1F2EE20C1F280911E028032D7
:1047A00038F22091190230911A023A8329831B8230
:1047B000DD82CC828E83CE010196B8CFE83CF10534
:1047C000F8F6FE2CEE2009F243131FC092131DC011
:1047D00080911E0280FD10C0982F907F69F0F80133
:1047E0008583903F31F0982F907F905F8F70892B59
:1047F0008583C8010E94C81B86E0F801A9E1B2E0E8
:1048000001900D928A95E1F70DCFC8010E94210F0A
:1048100081118ECF80911E02816080931E02C8019B
:104820000E94C81BFFCEEE2009F48FCFC8010E9462
:10483000210FF82E882309F488CF86E0F801A9E13A
:10484000B2E001900D928A95E1F780911902909162
:104850001A020E94150F0E946222E4CE81E08E258A
:10486000FBCE1F93CF93DF93CDB7DEB767970FB61D
:10487000F894DEBF0FBECDBF4B8B5C8B6D8B7E8BF8
:104880008F8B6111109272021A8A198A85E0FE01DB
:104890007396DE011D9601900D928A95E1F786E0F0
:1048A000FE013D96DE01179601900D928A95E1F783
:1048B000CE0107960E94B822882389F016E08091E5
:1048C000500290911F02891349C067960FB6F89461
:1048D000DEBF0FBECDBFDF91CF911F91089586E05F
:1048E000FE013796DE01119601900D928A95E1F74F
:1048F0008A859B85892B11F38F81988589238F3F2A
:10490000E9F220911F0230E0C901019687709927D2
:10491000409150024817190671F40E943B171092FB
:104920001F021092500286E0E9E1F2E0DF011D92E1
:104930008A95E9F7C3CF96E0929FD001939FB00D7F
:104940001124A05EBD4FFE01319601900D929A9503
:10495000E1F780931F020E94E90CB0CF819FC00154
:104960001124805E9D4F0E94B822882309F4ADCFA8
:104970008091500290E001968770992780935002B1
:104980009ECF1F920F920FB60F9211242F933F9339
:104990004F935F936F937F938F939F93AF93BF9347
:1049A000CF93DF93EF93FF93D091E900DF70809175
:1049B000EC00C82FC17080FDC0E81092E900809122
:1049C000F000877F8093F00078940E945017109237
:1049D000E9008091F00088608093F000CD2BCF70CB
:1049E000C093E900FF91EF91DF91CF91BF91AF911B
:1049F0009F918F917F916F915F914F913F912F91F7
:104A00000F900FBE0F901F9018951F920F920FB628
:104A10000F9211242F933F934F935F936F937F9344
:104A20008F939F93AF93BF93EF93FF938091E10098
:104A300082FF09C08091E20082FF05C08091E10001
:104A40008B7F8093E1008091DA0080FF24C0809109
:104A5000D80080FF20C08091DA008E7F8093DA003A
:104A60008091D90080FF9DC080E189BD82E189BD30
:104A700009B400FEFDCF81E08093C00380919B03C9
:104A8000811109C00E94EF020E94BA038091E200E6
:104A900084608093E2008091E10080FF17C08091E4
:104AA000E20080FF13C08091E2008E7F8093E200DD
:104AB0008091E20080618093E2008091D800806262
:104AC0008093D80019BC85E08093C0038091E100F9
:104AD00084FF2BC08091E20084FF27C080E189BD64
:104AE00082E189BD89B5982F917080FFFBCF8091BD
:104AF000D8008F7D8093D8008091E1008F7E8093D5
:104B0000E1008091E2008F7E8093E2008091E200DC
:104B100081608093E2008091C103882309F447C03B
:104B200084E08093C0038091C0038091E10083FF03
:104B300027C08091E20083FF23C08091E100877F3E
:104B40008093E10082E08093C0031092C1038091C2
:104B5000E1008E7F8093E1008091E2008E7F809360
:104B6000E2008091E20080618093E20042E060E038
:104B700080E00E9488038091F00088608093F000BC
:104B8000FF91EF91BF91AF919F918F917F916F9125
:104B90005F914F913F912F910F900FBE0F901F90FB
:104BA000189519BC1092C00310929B0374CF80918A
:104BB000E30087FD93E09093C003B5CF78941F92F4
:104BC0001FB61F9211248F939F93AF93BF93809131
:104BD000920390919303A0919403B0919503019651
:104BE000A11DB11D8093920390939303A09394030E
:104BF000B0939503BF91AF919F918F911F901FBE6E
:104C00001F9018951F921FB61F9211248F939F9388
:104C1000AF93BF9380919103811113C08091920350
:104C200090919303A0919403B09195034196A11D97
:104C3000B11D8093920390939303A0939403B09338
:104C40009503BF91AF919F918F911F901FBE1F90B1
:104C50001895CDB7DEB7AA970FB6F894DEBF0FBE92
:104C6000CDBF84B7877F84BF0FB6F894A895809195
:104C70006000886180936000109260000FBE80E841
:104C800090E00FB6F89480936100909361000FBE9E
:104C900085B7806885BF85B7806885BF88EF9AE053
:104CA0009093EB018093EA010E94EF020E94BA0305
:104CB0008091E20084608093E20078948091C00348
:104CC0008823A1F01091E9001F709091EC00892FCA
:104CD000817090FD80E8182B1092E9008091E80027
:104CE00083FD0E9450171F701093E90082E084BD7D
:104CF00093E095BD9AEF97BD80936E000E94410F9F
:104D0000811102C00E94A40E0DE411E0D8018D9122
:104D10008D018F3F11F00E94FA0AB1E002351B07A6
:104D2000A9F702E511E088E5E82E81E0F82EF80108
:104D300081918F018F3F11F00E94FA0AE016F1066F
:104D4000B1F786E0E7E8F2E0DF01282F1D922A950F
:104D5000E9F7E9E7F2E0DF011D928A95E9F70E94A1
:104D6000531B811102C00E945E1B82E090E00E94F2
:104D7000062C80937F020E945A0F90939703809392
:104D800096030E949215EFE3FCE93197F1F700C01A
:104D900000000E9492158091870280FF08C06FEF8B
:104DA0007FEF90E080E00E94422C0E94DD0D83E0C6
:104DB00090E00E94062C0E9437171092D4038FEFC8
:104DC0009FEF9093EE038093ED039093F003809315
:104DD000EF039093F2038093F1039093F403809395
:104DE000F3039093F6038093F5039093F803809375
:104DF000F7039093FA038093F9039093FC03809355
:104E0000FB031092FF029093190380931803909371
:104E10001B0380931A0390931D0380931C039093AC
:104E20001F0380931E03909321038093200390938C
:104E3000230380932203909325038093240390936C
:104E40002703809326030E94531B811104C00E94F4
:104E50005E1B0E947F1546E050E06CE170E08EEC36
:104E600093E00E94F62B10922D038091CE038C7F4D
:104E700011F40E947F1584E091E090938E0380935B
:104E80008D03A8E1EA2EF12C87E892E0B6E08B2EA4
:104E9000880E18E0C12ED12C8091C003853089F492
:104EA00000E4BB24B394F3E0AF2E10E18091C00383
:104EB000853009F498C10E943B170E942305109287
:104EC0002C030E949215882359F08FB7F8944091D3
:104ED00092035091930360919403709195038FBF57
:104EE000A7E8B2E0E0E8F2E010E000E0902F7D906B
:104EF0008191871509F4DBC18725B12CAA24A394DD
:104F0000282F2A2109F4CEC1B9A29AA37A2081E0E0
:104F100009F480E08BA30E948C048160782F9DA30C
:104F20008CA349A15AA16BA18DA10E943124F80143
:104F3000E058FD4F8081A826A082772089F085E087
:104F4000809FF001819FF00D1124E159FE4FEB0D80
:104F5000F11D8081712C8F3F19F0982E7724739466
:104F6000072D10E08091FF02800F912F911D09976E
:104F70005CF15601A01AB10AB80160507D4FA5013D
:104F800080E093E00E94ED2BB801685F7C4FA501A3
:104F900088E093E00E94ED2BA501440F551FB80156
:104FA000660F771F685E7C4F88E193E00E94ED2BCF
:104FB000B801605F7C4FA50180E193E00E94ED2B7A
:104FC00088E087198093FF028091FF0290E0292DED
:104FD00030E0D901AA0FBB1FBD0163577E4F9D0171
:104FE00022573E4F41E0480F971508F446C1809381
:104FF000FF020E94AA1486E0E4E9F2E0DE011196C5
:1050000001900D928A95E1F7B0909602A0909702D8
:1050100010919802009199021092960210929702B4
:1050200010929802109299028B2D8A2909F448C097
:1050300080919202909193020E947D049C01909134
:105040008E02992309F426C325313105C8F19F3F0B
:1050500019F09F5F90938E02BB2059F00E947E0A48
:105060009FEF1B140CF491E0899F802D11248093F5
:105070009602AA2059F00E947E0A9FEF1A140CF49F
:1050800091E0899F802D11248093970230919602A0
:105090003323B1F020919702222391F045EB3403A2
:1050A000C0011124992309F419C19093960245EB8C
:1050B000240390011124332309F414C1309397027F
:1050C000812F802B09F448C0809190029091910229
:1050D0000E947D049C0190918D02992309F4D5C210
:1050E00021353105C8F19F3F19F09F5F90938D02E4
:1050F000112359F00E945C0A9FEF11160CF491E005
:10510000899F802D112480939802002359F00E94DA
:105110005C0A9FEF10160CF491E0899F802D1124FA
:1051200080939902309198023323B1F02091990233
:10513000222391F045EB3403C0011124992309F493
:10514000D5C09093980245EB24039001112433239A
:1051500009F4D0C030939902809196029091970201
:10516000892B90919802892B90919902892B11F0AB
:105170000E94BC0986E0FE013196A4E9B2E00190EC
:105180000D928A95E1F70E9423059091860289137A
:10519000809386028091C003843009F07DCE83E045
:1051A0008093E9008091E80082FF76CE8091E8004C
:1051B00090E085FF06C00E940E03882309F49EC07C
:1051C00091E08091E8008B778093E800992309F4BF
:1051D00063CEE981E150E33108F012C1F0E0E4521E
:1051E000F34D0C94772B8091C003843009F436C0C2
:1051F0000E94AA1480912C0381110DC00E94D50F2A
:10520000109213018091CE038370809312010E944B
:10521000010EA0921401B0922C03109291030FB6CC
:10522000F894A895E09260000FBE0093600083B7E9
:10523000817F846083BF83B7816083BF78948895C2
:1052400083B78E7F83BF0FB6F894A89580916000D6
:10525000886180936000109260000FBE8091BF0350
:10526000882309F423CE0E949215E7E8F2E08191A9
:105270008111EBC18E12FBCF19CE90E0FC01E15001
:10528000FD4FDB015C915183D9015C915187918A7B
:10529000880F991FFC01E150FD4F128E118E91E095
:1052A000842FA0CEB394AA0C25E0B21229CE0F5FB2
:1052B0001F4F0630110509F019CE8FEF8EA38FA373
:1052C00018A60E948C048160782F9AA789A74EA106
:1052D0005FA168A58AA50E9431248BCE81E08093CE
:1052E0009602E5CE81E080939702EACE81E080933A
:1052F000980229CF81E0809399022ECF00E210E03E
:10530000CE0101965C018091E80085FD0AC0809184
:10531000E8008B778093E8000E940E03882399F3BE
:105320004FCF8091F100D5018D935D01015011099E
:1053300051F746CF1A8289E08B832DC08A81823053
:1053400009F49AC18330A9F0813009F059C02FB710
:10535000F8946091920370919303809194039091DB
:1053600095032FBF0E947D2B6B837C838D839E834F
:1053700012C0809187028B83809188028C838091F8
:1053800089028D8380918A028E8380918B028F8324
:1053900080918C0288878091C003843009F07CCD95
:1053A0001091E9001F709091EC00892F817090FDA1
:1053B00080E8182B82E08093E9008091E80080FF6C
:1053C0000DC050E040E060E270E0CE0101960E9426
:1053D0003F038091E8008E778093E8001F70109360
:1053E000E9005ACD8A81823059F46B817C818D81AC
:1053F0009E810E947D2B86E290E00E94242CCBCFE0
:105400008FEF8983C8CF4C816B818A810E94B30E54
:105410009827892798279E838D83BDCFAD80BE8036
:10542000BA24AB24BA248A810B81BAE00B9F800195
:105430001124ECE38E9F000D111D11248C8190E04E
:10544000880F991F080F191F6B2DC80187960E949E
:10545000242C6A2DC8018896D0CF0E94380E9BCF8D
:105460008A818138C9F068F4803809F094CF80913E
:10547000CF0320E04B816091D00390E00E94900523
:105480008ACF823819F1833809F085CF8B8120E0EB
:105490004091D1036C81F1CF60E08B810E94EB05DC
:1054A0009B818091CE03911109C0982F937011F0C8
:1054B000109214018C7F8093CE036DCF982F937040
:1054C00011F4109214018C7F8160F5CF8B81809351
:1054D000D20361CF8A81813899F030F4803809F0A5
:1054E0005ACF8091D10328CF823879F0833809F0E0
:1054F00052CF8091CF038B838091D0038C834BCF8D
:105500008091CE038695869517CF8091D20314CFD4
:105510000E949F1440CF80E18A833DCF82E08A833E
:1055200081E70ACF0A811B81102701271027CE01AE
:1055300001963C01AC80DC01AA0DB11D5D01C801E2
:1055400081579E4F6A147B0409F425CF0137B2E0DE
:105550001B0750F40E94062CF30184830F5F1F4F3A
:10556000BFEF6B1A7B0AEBCFD30114961C92F6CFD8
:105570000A811B81102701271027FE0131963F0168
:10558000AC80A00EB12EB11CC80181579E4FA01651
:10559000B10609F400CF0137F2E01F0728F4D30168
:1055A00014966C910E94242CBFEF6B1A7B0A0F5F3C
:1055B0001F4FEACF0E94280EEECE86E0ADCF0A81C3
:1055C0001B81102701271027FE0131963F01AC8077
:1055D000CF018A0D911D5C01C8018796A614B704FE
:1055E00009F4D9CE0836A1E01A0750F40E94062C1F
:1055F000F30184830F5F1F4FBFEF6B1A7B0AECCF61
:10560000D30114961C92F6CF0A811B811027012723
:105610001027FE0131963F01AC80A00EB12EB11CC7
:10562000C80187960A151B0509F4B5CE0836F1E0C6
:105630001F0728F4D30114966C910E94242CBFEF0D
:105640006B1A7B0A0F5F1F4FEBCF19BD82E189BD3B
:1056500009B400FEFDCF8091D8008F7D8093D800E3
:105660008091E00082608093E0008091E00081FD05
:10567000FCCF0E943B171ACC86E290E00E94062CD9
:105680001B821C821D828E8386CE2B30310508F052
:105690002CCD62CD2B30310508F0DBCC11CDAA1B0F
:1056A000BB1B51E107C0AA1FBB1FA617B70710F00D
:1056B000A61BB70B881F991F5A95A9F7809590953F
:1056C000BC01CD01089597FB072E16F4009407D076
:1056D00077FD09D00E944F2B07FC05D03EF4909532
:1056E00081959F4F0895709561957F4F0895EE0FB6
:1056F000FF1F0590F491E02D0994692796276927EB
:1057000078278727782708958F929F92AF92BF922C
:10571000CF92DF92EF92FF92CF93DF93EC016881FB
:1057200079818A819B81611571058105910521F43B
:1057300064E279ED8BE597E02DE133EF41E050E055
:105740000E94482C49015A019B01AC01A7EAB1E42F
:105750000E94672C6B017C01ACEEB4EFA5019401B3
:105760000E94752CDC01CB018C0D9D1DAE1DBF1D53
:10577000B7FF03C00197A109B04888839983AA8322
:10578000BB839F77DF91CF91FF90EF90DF90CF9019
:10579000BF90AF909F908F9008950E94842B0895A2
:1057A00080E091E00E94842B0895B0E0A0E0809317
:1057B000000190930101A0930201B09303010895A9
:1057C000FB01DC0104C08D910190801921F441504E
:1057D0005040C8F7881B990B0895FB01DC0102C0FB
:1057E00001900D9241505040D8F70895DC01CB0153
:1057F000FC01F999FECF06C0F2BDE1BDF89A3196E1
:1058000000B40D9241505040B8F70895F999FECF79
:1058100092BD81BDF89A992780B50895A8E1B0E0BE
:1058200042E050E00C94F82BDC01A40FB51F41506E
:10583000504048F0CB01840F951F2E910E94252CDB
:1058400041505040D0F70895262FF999FECF92BDD0
:1058500081BDF89A019700B4021639F01FBA20BD35
:105860000FB6F894FA9AF99A0FBE08950396272F67
:105870000E94252C0E94242C252F0E94252C242FA9
:105880000C94252C0196272F0E94252C0C94242C57
:10589000052E97FB1EF400940E945F2C57FD07D045
:1058A0000E947A2C07FC03D04EF40C945F2C509588
:1058B0004095309521953F4F4F4F5F4F08959095FC
:1058C0008095709561957F4F8F4F9F4F08950E94EF
:1058D0009C2CA59F900DB49F900DA49F800D911DB1
:1058E00011240895B7FF0C94672C0E94672C821B2B
:1058F000930B0895A1E21A2EAA1BBB1BFD010DC03C
:10590000AA1FBB1FEE1FFF1FA217B307E407F5076F
:1059100020F0A21BB30BE40BF50B661F771F881F4B
:10592000991F1A9469F760957095809590959B01E1
:10593000AC01BD01CF010895A29FB001B39FC0018A
:10594000A39F700D811D1124911DB29F700D811DAB
:105950001124911D0895F894FFCF0A10341064109B
:10596000A110E010231168116E11711174117911D9
:10597000C711CA11181254129012D512D812DB1284
:1059800045131714781485148914941436185E1866
:10599000011A5E18011A9118B218011AB019BD192E
:1059A000201F201F5B1F5B1F092023208B1F8B1FC5
:1059B0002E209B20AC20AC209A299E29F229032A74
:1059C0000E2A2D2A302A6A2A882A002A002A8B2A9F
:0E59D0008E2A922AB82ADA2ADD2ADF2A042B30
:1059DE00010000007A049D0D7C0D780D740D790484
:1059EE003905FFFF030100FF0000FFB4818283E24F
:1059FE0000E900EA00B500B600B700CD008301CC87
:105A0E00008A01920194012102230224022502261A
:105A1E000227022A02B300B4006F00700095939221
:105A2E009190949697343566003131295A1B750A38
:105A3E004022B684016201AC00EE0407052705047E
:105A4E000302010005060708090E0D0C0B0A0F10C4
:105A5E001112FF17161514FF18191A13FFE000A8DC
:105A6E0000700038000000001138117011A811E00C
:105A7E0011E023A81D701D381D001D002938297046
:105A8E0029A829E03AA83470343834003400405440
:105A9E0040A840E04000400000E00001010101018B
:105AAE0004040404040404040404040404040404A8
:0A5ABE0004040404040402020202BE
:00000001FF
